:020000040800F2
:10000000284600202D130008311100083311000884
:10001000371100083B1100083F11000800000000E4
:100020000000000000000000000000004311000874
:1000300045110008000000004711000849110008A0
:10004000471300084713000847130008B94A00087F
:100050004713000847130008471300084713000818
:1000600047130008471300082777000847130008C4
:1000700047130008471300084713000847130008F8
:1000800047130008471300084713000847130008E8
:10009000471300084713000847130008EB46000801
:1000A00047130008471300084713000847130008C8
:1000B000471300086143000847130008471300086E
:1000C00047130008471300084713000847130008A8
:1000D0004713000835360008F9360008BD38000817
:1000E000471300084713000847130008DFF80CD037
:1000F0000CF038FD00480047B706000828460020ED
:1001000010B50020FB490870FB4908704FF4C87116
:10011000FA480CF08CF86421F9480CF088F80020BB
:10012000F8490870F8490870F8490870F8490870EB
:10013000F8490870F849087010BDFEB50446002063
:100140001021F6A24FF6FF73CDE9002102901F2285
:100150001E21142005F043FA1020032322461E21FD
:1001600000902D2005F056F8EE4800EB04100278C0
:10017000EDA1EF480CF064FD00201021EC4A4FF691
:10018000FF73CDE9002102901F2264215F2005F05A
:1001900026FAE749E7A00CF043FD1421E4480CF0EF
:1001A00046F8E04800EB04104278E6A1E0480CF085
:1001B00047FD00201021DE4A4FF6FF73CDE90021F4
:1001C00002901F22AF215F2005F009FAD849DFA075
:1001D0000CF026FD1421D6480CF029F8D14901EB8A
:1001E000041188680CF062FA05462A460B46DBA12A
:1001F000CF480CF025FD00201021CD4A4FF6FF73AB
:10020000CDE9002102901F226421A52005F0E7F925
:10021000C749CEA00CF004FD1421C5480CF007F826
:10022000C04901EB0411C8680CF040FA05462A46A3
:100230000B46CAA1BE480CF003FD00201021BC4AA9
:100240004FF6FF73CDE9002102901F22AF21A520B8
:1002500005F0C5F9B649BDA00CF0E2FC1421B44884
:100260000BF0E5FFAF4901EB041148680CF01EFAF2
:1002700005462A460B46BBA1AD480CF0E1FC002028
:100280001021AB4A4FF6FF73CDE9002102901F22E7
:1002900064214FF48C7005F0A2F9A549ABA00CF0D5
:1002A000BFFC1421A2480BF0C2FF9E4800EB0410D3
:1002B0004288AEA19E480CF0C3FC002010219C4A4D
:1002C0004FF6FF73CDE9002102901F22AF21FF20DE
:1002D00005F085F996499DA00CF0A2FC14219448E4
:1002E0000BF0A5FFFEBD2DE9F041044684480079DE
:1002F000A049088082488079097800EB01209D4957
:1003000008807F48007A9C4908807D48807A097877
:1003100000EB012098490880084600880CF073F92A
:1003200005464FF06632954B0CF07EF807460CF010
:1003300001FA934908607248007B9249088070482E
:10034000807B097800EB01208E49088008460088F0
:100350000CF059F9054600228B4B0CF0D7F80746F4
:100360000CF0E8F9894908606548007C88490880F4
:100370006348807C097800EB0120854908800846A5
:1003800000880CF040F9054600227F4B0CF0BEF8C7
:1003900007460CF0CFF97F49086059480078614959
:1003A00001EB04110870564880785E4901EB041196
:1003B0004870704800885B4901EB04114880704820
:1003C0000068584901EB04114860704800685549BD
:1003D00001EB041188606F480068524901EB041179
:1003E000C8605049E01C01EB0010007801EB0411DB
:1003F00009780844C1B24B4AE01C02EB00100170BE
:100400001146E01C01EB0010407801EB0411497823
:100410000844C1B2E01C02EB001041701146E01C20
:1004200001EB0010408801EB04114988084481B2B7
:10043000E01C02EB0010418002EB0412394B5168C2
:10044000E21C03EB021250680BF026FF354AE11C58
:1004500002EB0111486002EB0412324B9168E21C7E
:1004600003EB021290680BF017FF2E4AE11C02EB1F
:100470000111886002EB04122A4BD168E21C03EBE5
:100480000212D0680BF008FF264AE11C02EB0111B2
:10049000C860601E4049085C401CC1B2601E3E4AF4
:1004A00011543E480078844205DB01203C49087025
:1004B00000203C4908703B480078401C39490870CE
:1004C000BDE8F08170B50446214637A00CF0A8FBCA
:1004D000631E3A4D05EB8303DA78631E05EB830355
:1004E0009978631E05EB83035878354B03F0B6FC0F
:1004F00070BD00008B0000207F000020B2060020AD
:10050000800200208C0000208000002006000020D7
:1005100007000020080000207E000020B4D3BBFAB2
:100520003A000000700300202564A1E600000000EE
:100530005C0300200D0A7374725F74656D703A2558
:10054000730D0A0025642525000000007374725F96
:1005500074656D703A25730D0A00000025312E3246
:100560006625250025322E31665600002532644C62
:1005700058000000120000201400002066664A3F68
:100580002C000020160000200088C340300000200E
:100590001800002034000020480000200000002047
:1005A0003800002003000020CFF2B4D3BBFA25644A
:1005B000B7A2CBCDCAFDBEDD0D0A00005802002057
:1005C0004803002010B50421FC480BF009F9FC4950
:1005D000087008460178FBA00CF022FB0121F748C7
:1005E0000BF0FEF8F649087008460178FAA00CF006
:1005F00017FB0BF070FAFD4908600846006830B937
:1006000000200BF05CFA0120F949086010E0F7497E
:100610000968A1F114000BF052FA002114200BF02C
:10062000F2F8F2480068012101EBD010F0490860AF
:100630000BF0E2F8EE480168EEA00CF0F1FAEC489D
:10064000008880B210BD70B50121084605F04BFE50
:10065000EE4908700121022005F045FEEC490870C2
:100660000121032005F03FFEEA49087000241DE047
:10067000002513E03C2101EB84014819012105F01C
:1006800032FEE54901EB84014855E34800EB840064
:10069000415DE2A00CF0C4FA681CC5B2042DE9DB90
:1006A000AFF2EC000CF0BCFA601CC4B2D748007882
:1006B0008442DDDB70BDB6B000F0B7FD02F0E8FEAD
:1006C0004FF4A06000F044FE4FF4E13002F058FF18
:1006D00002F0F6FF4FF4E13003F05FF84FF4E13041
:1006E00003F0A6F903F08DFB05F090FD08F060F92A
:1006F00005F07FF906F0B4FF07F08AFE0BF0D7FC97
:1007000029E000201021C6A24FF6FF73CDE9002199
:1007100002901F221921322004F061FF4FF4FA7079
:1007200002F0F3FE00201021C1A24FF6FF73CDE9C5
:10073000002102901F221921322004F050FF4FF4B3
:10074000FA7002F0E2FEBE48006808B9012000E03D
:100750000020BB49086007F0D0FF0028D1D110214C
:10076000B8A24FF6FF73CDE9002102901F2232217B
:10077000084604F034FF08F01BF90122B5A1B64881
:10078000006809F056FA05F0CEFA03F015FEFFF7FF
:100790005AFF06E0B1A00CF043FA4FF4FA7002F0F1
:1007A000B4FE03F071FA0028F4D1AFA00CF038FACF
:1007B000FFF708FF60E2AF48007895490978884262
:1007C0003DDBADA00CF02CFAAD480078401CAC49E4
:1007D00008701421AB480BF02AFDABA1A9480CF01E
:1007E0002FFAAC48007889490978884202DD012057
:1007F000A8490870A7480078FFF764FEFFF780FC5F
:10080000A04AA4480178A4A00CF00AFA9C480078F9
:10081000052811DB9F480078401C9E490870002085
:10082000974908709B48017878480078401C8142BD
:1008300002D101209749087000208E4908709C4819
:10084000007802284ED19BA00CF0EAF9002010217C
:100850009AA24FF6FF73CDE9002102901F221921C1
:10086000322004F0BCFE98A002F0E8FF98A00CF043
:10087000D7F9012151480AF0B3FF514908700A2005
:100880009749087012E00BF026F995490978C1EBF9
:10089000D01084B220460BF06DFB4FF4487002F08C
:1008A00034FE8F480078401E8D4908708C480078CF
:1008B0000028E8DC0AF0A0FF8AA002F0BFFF4FF496
:1008C000967002F022FE0020102188A24FF6FF73DE
:1008D000CDE9002102901F221921322004F07FFE71
:1008E000FFF70EFC84480078042866D183A00CF042
:1008F00097F900206249087035E082487849097804
:10090000405C262812D17F4975480078401C085C5D
:1009100026280BD101207C49087071480078401CC2
:100920006F49087008460078401C087076480078C7
:10093000012813D173486A490978405C7349744AA5
:10094000127888540846724A1278815C33A00CF001
:1009500067F96F480078401C6D490870604800785E
:10096000401C5F49087067485D490978405C24284D
:10097000C3D164495A480078401C085C2428BCD183
:1009800004F0FCF843480078FFF7ADFC61480078BC
:10099000012803D160480078FFF7CFFB5E4800785C
:1009A0001A490978884202D100205B4908705A48E8
:1009B0000078401C58490870B0E0B1E0AE0A002051
:1009C000040000206D665F6F70656E5F7374613147
:1009D0003A25730D0A0000006D665F6F70656E5FEB
:1009E000737461323A25640D0A000000280000206B
:1009F00044000020696E745F686973746F72795F78
:100A00006E756D3A25640D0A00000000000000209C
:100A10000100002002000020580200202564200070
:100A200053442043617264204572726F212121007A
:100A3000506C6561736520436865636B21212100FB
:100A4000B401224253442043617264204F4B212160
:100A500021000000303A0000140200204C4F5241A7
:100A6000D5FDC3A60D0A00004C4F5241D5FDB3A3DE
:100A70000D0A00008E0000203131310D0A00000007
:100A80000500002048030020262673746172742438
:100A90002400000003000020B7A2CBCDD6B8C1EEE1
:100AA000B8F8B4D3BBFA25642C2025730D0A0000D6
:100AB0008000002032320D0A0000000053656E6491
:100AC00020446174610000006F6C646161626300C6
:100AD000B7A2CBCDC0FACAB7CAFDBEDD0D0A000071
:100AE000060000206E6F77646174610053656E6468
:100AF000204F6B20202000008C00002033330D0A93
:100B000000000000B2060020080000208002002043
:100B1000070000204B0000209A000020FFF7F0FAA9
:100B2000FE48007801287DD1FDA00CF079F8002066
:100B3000FA490870FC49C86C0BF0B8FD04460D4634
:100B4000F949886C0BF0B2FD06460F46F649486C31
:100B50000BF0ACFD80468946F349C86B0BF0A6FD4F
:100B600082468B46F049886B0BF0A0FDCDE934013D
:100B7000ED49486B0BF09AFDCDE93201EA49C86AAC
:100B80000BF094FDCDE93001E749886A0BF08EFD4A
:100B9000CDE92E01E449486A0BF088FDCDE92C012E
:100BA000E149C8690BF082FDCDE92A01DE49886977
:100BB0000BF07CFDCDE92801DB4948690BF076FD9F
:100BC000CDE92089CDE92267CDE92445CDE926018B
:100BD000D548B0F84200D44991F84110D24A92F871
:100BE0004020CDE91AABCDE91C211E90DDE934018E
:100BF000CDE91801DDE93201CDE91601CA48408E80
:100C0000C94991F83110C84A92F83020CDE9122133
:100C10001490DDE93001CDE91001DDE92E01CDE9C7
:100C20000E0100E028E0DDE92C01CDE90C01BE4811
:100C3000408CBD4991F82110BB4A92F82020CDE9A3
:100C400008210A90DDE92A01CDE90601DDE9280144
:100C5000CDE90401DDE92601CDE90201B248408A6F
:100C60000090B148437C027CB049B1480BF0E8FFEA
:100C7000AF49B0A002F0E2FD9DE538B5AE4841684D
:100C800000208847AC48007D00F0800000287DD01F
:100C9000012004F0F5FFA848008A282817DAA648A2
:100CA000008A052813DDA448408A32280FDDA248B7
:100CB000408A46280BDAA1480078012807D1AFF214
:100CC0006C200AF0ACFE4FF4967002F01EFC9A48BD
:100CD000008A282845DA9848008A052841DD964888
:100CE000408A5A283DDD9448408A6E2839DA934874
:100CF0000078012835D1AFF2302002F09FFD4FF48B
:100D0000167002F002FCAFF238200BF089FF0AF0F7
:100D1000E2FE8B49086001218A480AF061FD8A4998
:100D200008700A240FE086490D68E91705EB516148
:100D3000C4EBE11188B20BF01DF94FF4487002F0DA
:100D4000E4FB601E84B2002CEDDC0AF055FDAFF22E
:100D50006C2002F073FD4FF4967002F0D6FBFFF7A3
:100D6000CFF97548008AB0F5877F13DA7248008A98
:100D7000E6280FDD7048408AC8280BDD6E48408A9F
:100D8000DC2807DA6D480078012800E002E001D194
:100D900005F0D4F807F050FB012828D14FF6FF707A
:100DA00004F07CFD05F0F2FF05F0B7FE67A004F04B
:100DB0007FFF00206D4900900988183988B26CA324
:100DC0001022002104F0ECF96A4800886A49088082
:100DD000084600886549009009881E398AB263492F
:100DE0000988343988B21223022103F0D7FE38BDB6
:100DF0002DE9F047AAB061A00BF012FF0120634972
:100E000008704FF0040A60E0474800EB0A100178D0
:100E1000AAF104005E4A105C91FBF0F0424901EB3C
:100E20000A110870404800EB0A104178AAF104004A
:100E3000105C91FBF0F03C4901EB0A1148703A4814
:100E400000EB0A104188AAF10400105C91FBF0F05D
:100E5000354901EB0A114880AAF10401505C0BF0FE
:100E6000CDFB0446304901EB0A11486821460BF0DE
:100E70009DFA2D4901EB0A114860AAF10401444A88
:100E8000505C0BF0BBFB0446274901EB0A11886854
:100E900021460BF08BFA244901EB0A118860AAF174
:100EA00004013B4A505C0BF0A9FB04461E4901EBD0
:100EB0000A11C86821460BF079FA1B4901EB0A11A7
:100EC000C8600AF1010000F0FF0ABAF1070F9BDBCE
:100ED0001549C86E0BF0EAFB04460D461249886EB0
:100EE0000BF0E4FB06460F460F49486E0BF0DEFBA5
:100EF000804689460C49C86D0BF0D8FBCDE9280126
:100F00000949886D0BF0D2FBCDE926010649486DF1
:100F10000BF0CCFBCDE9240103493BE03800002075
:100F200034340D0A000000007003002038F200087D
:100F3000E402002025730000A80000204B000020E0
:100F400044000020AE0A002004000020B2E2CAD40F
:100F5000393A546F75636828B0B44B455930D0A303
:100F6000D7BC29202020202020000000D20A002009
:100F7000525354001A0000209E000020D0B4C8EB49
:100F8000C0FACAB7CAFDBEDD0D0A0000400000204D
:100F900048000020C86C0BF089FBCDE922015349C1
:100FA000886C0BF083FBCDE920015049486C0BF0B5
:100FB0007DFBCDE91E014E4800684E49CDE91689FA
:100FC000CDE91867CDE91A45CDE91C104748B0F8BE
:100FD0006200464991F86110444A92F86020CDE9D8
:100FE00012211490DDE92801CDE91001DDE9260187
:100FF000CDE90E01DDE92401CDE90C013B48B0F853
:1010000052003A4991F85110384A92F85020CDE9EF
:1010100008210A90DDE92201CDE90601DDE9200180
:10102000CDE90401DDE91E01CDE902012F48B0F848
:1010300042002E4991F84110CDE900102B4890F85C
:1010400040302B482C4902682C480BF0F9FD284809
:101050002A4902682AA00BF0E3FD25480068401CDD
:101060002349086004212E480AF0BAFB2D49087074
:1010700002212B480AF0B4FB2A4908700AF02BFD24
:1010800029490860084600680AF019FD1B480AF063
:1010900012FF0AF0B1FB4FF0040A20E000201349D0
:1010A00001EB0A110870114901EB0A1148700F4950
:1010B00001EB0A1148800D4901EB0A1148600B4908
:1010C00001EB0A118860094901EB0A11C86000218F
:1010D000AAF10400154A1154401D00F0FF0ABAF1AC
:1010E000070FDBDB2AB0BDE8F087000070030020AB
:1010F000440000209A0A0020C8F10008E402002001
:10110000646174613A25730D0A696E745F6869736E
:10111000746F72795F6E756D3A25640D0A00000078
:10112000AE0A002004000020280000204800002013
:10113000704700BFFEE700BFFEE700BFFEE700BF4D
:10114000FEE7704770477047704700000CB50020FD
:10115000019000906C48006840F480306A49086053
:1011600000BF6948006800F4003000900198401CFE
:101170000190009818B90198B0F5A06FF1D16248BC
:10118000006800F4003010B10120009001E0002060
:1011900000900098012843D15C48006840F010009E
:1011A0005A4908600846006820F0030008600846B5
:1011B000006840F0020008605348406852494860A7
:1011C0000846406848600846406840F480604860CF
:1011D0000846406820F47C1048600846406840F4A7
:1011E000E81048600846006840F08070086000BF62
:1011F0004548006800F000700028F9D04248406877
:1012000020F00300404948600846406840F0020072
:10121000486000BF3C48406800F00C000828F9D145
:101220000CBD10B5FFF792FF10BD10B53648006831
:1012300040F00100344908600846406834490840DD
:101240003149486008460068324908402E49086024
:101250000846006820F4802008600846406820F4B2
:10126000FE0048604FF41F008860FFF7DAFF4FF080
:1012700000602949086010BD10B50021002000223F
:10128000214B5B6803F00C0121B1042906D0082929
:1012900028D107E0214B224C236027E01F4B204C34
:1012A000236023E0184B5B6803F47010164B5B68F7
:1012B00003F48032022303EB904022B9194B4343DD
:1012C000174C23600DE0104B5B6803F4003323B12F
:1012D000144B4343124C236003E0104B4343104C28
:1012E000236003E00D4B0E4C236000BF00BF064B94
:1012F0005B68C3F303130C4CE15C094B1B68CB40E8
:10130000074C236010BD0000001002400020024086
:101310000000FFF8FFFFF6FE08ED00E000127A0083
:101320004C00002000093D00500000200648804786
:1013300006480047FEE7FEE7FEE7FEE7FEE7FEE7BA
:10134000FEE7FEE7FEE7FEE72B120008ED000008CF
:1013500031490143314A1160704770B500210023C3
:101360000F22C47804B32D4C246804F4E064C4F55F
:10137000E064210AC1F10403CA40447804FA03F18D
:101380008478144021430901254C0678A15504783E
:1013900004F01F050124AC4005786D11AD0005F186
:1013A000E025C5F8004109E0047804F01F05012498
:1013B000AC401C4D0678761145F8264070BD1A4A9F
:1013C0000A400243154B1B1F1A60704739B1134A7C
:1013D000121D12680243114B1B1D1A6006E00F4AD2
:1013E000121D126882430D4B1B1D1A6070470428A2
:1013F00008D14FF0E021096941F004014FF0E022EB
:10140000116107E04FF0E021096921F004014FF07C
:10141000E0221161704700000000FA050CED00E0C9
:1014200000E400E080E100E080FFFF1F10B5012034
:1014300000F0C2FC002000F0BFFC10BD2A4908608B
:1014400070472949091F086070472749843108609F
:10145000704701460020254A10884FF67F42104011
:101460000843224A10807047014600201F4A108816
:101470004FF68072104008431C4A1080704708B530
:1014800000220092194A2C3A0092009A02440092DB
:10149000009A116008BD08B501460020009013486D
:1014A0002C3800900098084400900098008808BDEF
:1014B0000D489C300068C0B270470C480830008866
:1014C00040F0010009490831088070470648A03003
:1014D0000068C0B2704705480830008840F002003C
:1014E000024908310880704704860D422C6C004088
:1014F000002044490860091D0860091D0860091D95
:10150000086041483F4914310860704700213D4957
:101510008279002A3AD00A46126803689A430B4639
:101520001A600A1D126803689A430B1D1A6002793B
:1015300011440A6803681A430A60324A0832126882
:1015400003689A432F4B08331A601A1D1268036808
:101550009A432C4B0C331A604279102A0ED11A1F71
:10156000126803681A43274B08331A601A1D126861
:1015700003681A43234B0C331A600DE0214942796A
:1015800011440A6803681A430A6005E002791144AD
:101590000A6803689A430A6070470021016001717C
:1015A0000C21417100218171704716491031096881
:1015B0000143144A10321160704701460020114A5D
:1015C000143212680A400AB1012000E0002070477E
:1015D0000C49143108607047014600200022094B75
:1015E0001B6803EA0102074B14331B680B4013B15D
:1015F0000AB1012000E00020704702491431086060
:101600007047000000040140FFFF0F0010B50446C2
:10161000CC48844208D10121042000F0B3FB002112
:10162000042000F0AFFB46E0C748844208D1012106
:10163000082000F0A7FB0021082000F0A3FB3AE0FF
:10164000C248844208D10121102000F09BFB0021F8
:10165000102000F097FB2EE0BD48844208D1012104
:10166000202000F08FFB0021202000F08BFB22E0E7
:10167000B848844208D10121402000F083FB0021BA
:10168000402000F07FFB16E0B348844208D10121DE
:10169000802000F077FB0021802000F073FB0AE03F
:1016A000AE48844207D10121801500F06BFB002178
:1016B000A01500F067FB10BD10B50121084600F031
:1016C00061FB0021012000F05DFB10BD2DE9F04120
:1016D000024600250026002000230024002791F860
:1016E00003C00CF00F0591F803C00CF0100CBCF116
:1016F000000F03D091F802C04CEA050591F800C034
:10170000BCF1000F31D0146800202BE04FF0010C29
:101710000CFA00F3B1F800C00CEA03069E4220D197
:1017200083004FF00F0C0CFA03F7BC4305FA03FCDF
:101730004CEA040491F803C0BCF1280F06D14FF025
:10174000010C0CFA00FCC2F814C00AE091F803C0C6
:10175000BCF1480F05D14FF0010C0CFA00FCC2F8A7
:1017600010C0401C0828D1D31460B1F800C0BCF1EF
:10177000FF0F34DD546800202EE000F1080C4FF01C
:10178000010808FA0CF3B1F800C00CEA03069E4207
:1017900021D183004FF00F0C0CFA03F7BC4305FA7C
:1017A00003FC4CEA040491F803C0BCF1280F05D1F6
:1017B00000F1080C08FA0CF8C2F8148091F803C084
:1017C000BCF1480F07D100F1080C4FF0010808FAEE
:1017D0000CF8C2F81080401C0828CED35460BDE835
:1017E000F0814FF6FF710180022181700421C170E8
:1017F00070470246002093680B400BB1012000E0C7
:10180000002070470146886880B270470246002079
:10181000D3680B400BB1012000E000207047014667
:10182000C86880B2704701617047416170470AB172
:10183000016100E041617047C16070474FF4803240
:101840000A438261816182618269826970470246CE
:101850000020434B18684FF68073184040EA02108E
:1018600008433F4B186070473E49C8617047F0B568
:101870000A46002300240021002500F00046B6F1AE
:10188000004F02D1364EF16901E0354E7168C0F368
:10189000034583B200F44016B6F5401F08D121F08D
:1018A00070612F4E766826F070662D4F7E6012E0D4
:1018B00000F48016B6F5801F06D1032606FA05F45B
:1018C000A14341F0706106E0460D360103FA06F6C9
:1018D000B14341F0706122B1460D360103FA06F6BC
:1018E000314300F00046B6F1004F02D11C4EF161C9
:1018F00001E01B4E7160F0BD30B500228B071C0F5C
:101900000F2303FA04F2164B08338C1053F82430DB
:101910009343134C08348D1044F8253023468C1023
:1019200053F824308C07240F00FA04F423430C4CA2
:1019300008348D1044F8253030BD0A49DC31086088
:101940007047000000080140000C014000100140F9
:101950000014014000180140001C0140002001401B
:1019600000000140000020420E49086070470D4908
:10197000486070470B49886070474AF6AA200949B9
:10198000086070474CF6CC40064908607047014635
:101990000020044AD2680A400AB1012000E0002079
:1019A000704700000030004010B50121080700F02A
:1019B000F6F900214FF0805000F0F1F910BD2A49EE
:1019C0000862704728490861704701460020274A8D
:1019D000106820F0E0000843106070472249A031F1
:1019E0000860704710B502460020204B186820F0B0
:1019F0000300104318601E4B1B6843F004031C4C8B
:101A00002360012901D130BF00E020BF184B1B68C3
:101A100023F00403164C236010BD1448006840F006
:101A20000400124908600846006840F0020008609F
:101A30000F48006840F004000D49086000BF00BF77
:101A400030BF704701460020084A52680A400AB178
:101A5000012000E0002070470449096841EA800144
:101A6000024A11607047000000000E420070004002
:101A700010ED00E0DF48006840F00100DD4908603B
:101A800008464068DC490840DA4948600846006872
:101A9000DA490840D74908600846006820F48020E9
:101AA00008600846406820F4FE0048604FF41F00BC
:101AB00088607047CF49096821F48031CD4A1160B0
:101AC0001146096821F480211160B0F5803F03D0F0
:101AD000B0F5802F0ED106E0C649096841F4803187
:101AE000C44A116007E0C349096841F4A021C14A12
:101AF000116000E000BF00BF704710B50146002232
:101B0000002300204A11012A02D1BA4C236806E0C2
:101B1000022A02D1B74C236A01E0B64C636A01F095
:101B20001F02012494401C400CB1012000E0002061
:101B300010BD38B5002000900024002500BF3120E2
:101B4000FFF7DBFF05460098401C00900098B0F5B9
:101B5000A06F01D0002DF2D03120FFF7CEFF08B1E9
:101B6000012400E00024204638BD01460020A14A9F
:101B7000106820F0F80040EAC10010607047A049EA
:101B800008607047024600209A4B586820F47C1089
:101B900042EA01031843974B58607047984908661A
:101BA000704701460020934A506820F00300084324
:101BB000506070478F48406800F00C007047014645
:101BC00000208C4A506820F0F000084350607047B5
:101BD00001460020874A506820F4E06008435060C6
:101BE000704701460020834A506820F4605040EA64
:101BF000C1005060704729B17E4A527A02437D4B42
:101C00005A7204E07B4A527A82437A4B5A72704786
:101C10007B49D8310860704701460020754A5068FA
:101C200020F440400843506070470021714A203240
:101C30001170704A82F82010012802D004280AD1BD
:101C400004E001216B4A2032117005E00521694A48
:101C50002032117000E000BF00BF70476949086082
:101C600070476449096A0143624A116270476549D5
:101C700044390860704730B5002100220024002359
:101C80005C4D6D6805F00C0121B1042905D00829CF
:101C900023D105E05C4D056022E05B4D05601FE04F
:101CA000544D6D6805F47012524D6D6805F4803422
:101CB000022505EB92421CB9544D554305600BE0DB
:101CC0004C4D6D6805F400351DB1504D5543056010
:101CD00002E04D4D5543056002E04B4D056000BFED
:101CE00000BF444D6D6805F0F0010909484D6B5C7B
:101CF0000568DD4045603F4D6D6805F4E061090A07
:101D0000434D6B5C4568DD4085603A4D6D6805F478
:101D10006051C90A3E4D6B5C4568DD40C560354D7C
:101D20006D6805F44041890B3A4D6B5CC568B5FBA5
:101D3000F3F5056130BD29B12E4A526902432D4B9E
:101D40005A6104E02B4A526982432A4B5A61704718
:101D500029B1284A92690243264B9A6104E0254A38
:101D600092698243234B9A61704729B1214AD26913
:101D70000243204BDA6104E01E4AD26982431D4BC4
:101D8000DA61704729B11B4AD2680243194BDA6005
:101D900004E0184AD2688243164BDA60704729B1D2
:101DA000144A12690243134B1A6104E0114A126982
:101DB0008243104B1A6170471249403908607047DE
:101DC0000F49C86470470B49C87170470948406A99
:101DD00040F0807007494862704701460020054A7C
:101DE00092680A400AB1012000E0002070470149D2
:101DF00088727047001002400000FFF8FFFFF6FEF7
:101E0000000042428004424200127A0000093D0074
:101E1000600000207000002029B1504A128802435F
:101E20004E4B1A8004E04D4A128882434B4B1A8075
:101E300070474A48001D008840F010004749091DBE
:101E4000088070474548001D00884FF6EF71084034
:101E50004249091D08807047002140481C30018814
:101E6000001F008841EA0040704700B50246FFF7B6
:101E7000E0FF100C394918310880091D0A80FFF76E
:101E8000E1FF00BD00B50246FFF7D3FFC2F30340F8
:101E9000324908310880091D0A80FFF7D3FF00BDD1
:101EA00000B50246FFF7C5FF100C2C492031088011
:101EB000091D0A80FFF7C6FF00BD00202749103129
:101EC00009880907080B2549143109880843704718
:101ED00000BF2248001D008800F020000028F8D034
:101EE00070471E48001D00884FF6F77108401B49D7
:101EF000091D088000BF1948001D008800F0080077
:101F00000028F8D0704701460020144A121D12889C
:101F10000A400AB1012000E0002070470F49091D66
:101F2000098881430D4A121D118070470146002027
:101F30000A4A121D12880A40D0B2084A12880A4082
:101F400012B108B1012000E0002070470349091DCB
:101F500009888143014A121D118070470028004002
:101F600010B50446BE48844208D101218014FFF711
:101F700009FF0021A014FFF705FF16E0B9488442CD
:101F800008D101210014FFF70AFF00212014FFF7F8
:101F900006FF0AE0B448844207D10121C013FFF7CD
:101FA000FEFE0021E013FFF7FAFE10BD10B500227F
:101FB000028802F441520B884C8823438C882343C7
:101FC000CC8823430C8923434C8923438C892343A6
:101FD000CC8923431A430280838B4FF2FF74234042
:101FE00083830B8A038210BD2DE9F04F85B005462F
:101FF0000C464FF0000902274FF000084FF0010B8C
:102000000026B246A88B4FF240010840A883022068
:102010002884B5F81C90A068022801D100BF38E0E0
:10202000A08810B94FF0010B01E04FF0020B8D4872
:10203000854200D100E000BF6846FFF71CFEDDF8D6
:1020400000A0E088B0F5007F0AD14FEA1A2000EB2B
:1020500080004000A168B0FBF1F0401D86B20BE0AB
:102060004FEA4B10BAFBF0F000EB80004000A16893
:10207000B0FBF1F0401D86B20A20B6FBF0F606F088
:102080000108A6EB0800C0F34F074FF6FF7000EA07
:102090000828022F01DBFF2F02DD02274FF0000886
:1020A000E08840EA080038432884A088A1890843D2
:1020B000618808432188084340F4006040EA090928
:1020C000A5F81C9005B0BDE8F08F0021018041808B
:1020D0008180C180018141818181C181072101828B
:1020E00070470021018041808180C1800221816090
:1020F00000218181704721B1028842F040020280B4
:1021000004E002884FF6BF731A400280704721B185
:10211000828B42F48062828304E0828B4FF6FF332D
:102120001A408283704730B5002400230C1101252A
:10213000A540ABB21AB185881D43858002E0858831
:102140009D43858030BD1AB183880B43838002E0B4
:1021500083888B43838070478181704701468889DB
:1021600070474FF6FF62914204D0028842F48072B9
:10217000028004E002884FF6FF631A400280704735
:1021800021B1828842F00402828004E082884FF606
:10219000FB731A408280704702884FF2FF731A4027
:1021A000028002880A4302807047018841F480510E
:1021B0000180704721B1028842F40052028004E09D
:1021C00002884DF6FF731A400280704702460020D5
:1021D000012901D0108B00E0908A70470146088ADF
:1021E0007047B1F5804F04D1028842F480420280EA
:1021F00004E002884BF6FF731A40028070470246E3
:10220000002013890B400BB1012000E00020704733
:10221000CA4302817047F0B5024600200024002323
:10222000002501F00F070126BE40B4B20B110126B4
:102230009E40B3B2968806EA03051689264016B179
:102240000DB1012000E00020F0BD10B5002201F02A
:102250000F040123A3409AB2D343038110BD0000B1
:102260000030014000380040003C004010B50446FA
:10227000FE48844208D10121C014FFF783FD0021EC
:10228000E014FFF77FFDC4E0B4F1804F08D10121D5
:102290000846FFF784FD00210120FFF780FDB8E02C
:1022A000F348844208D101210220FFF778FD002184
:1022B0000220FFF774FDACE0EE48844208D1012112
:1022C0000420FFF76CFD00210420FFF768FDA0E06B
:1022D000E948844208D101210820FFF760FD002170
:1022E0000820FFF75CFD94E0E448844208D1012116
:1022F0001020FFF754FD00211020FFF750FD88E06B
:10230000DF48844208D101212020FFF748FD002149
:102310002020FFF744FD7CE0DA48844208D1012107
:102320004014FFF72FFD00216014FFF72BFD70E034
:10233000D548844209D10121C804FFF723FD0021BB
:102340004FF40020FFF71EFD63E0D048844209D11E
:1023500001210805FFF716FD00214FF48010FFF75B
:1023600011FD56E0CA48844209D101214805FFF712
:1023700009FD00214FF40010FFF704FD49E0C548B6
:10238000844208D101214020FFF709FD00214020AF
:10239000FFF705FD3DE0C048844208D101218020BF
:1023A000FFF7FDFC00218020FFF7F9FC31E0BB487E
:1023B000844208D101218015FFF7F1FC0021A0150E
:1023C000FFF7EDFC25E0B648844209D1012108045D
:1023D000FFF7D8FC00214FF48030FFF7D3FC18E062
:1023E000B048844209D101214804FFF7CBFC002109
:1023F0004FF40030FFF7C6FC0BE0AB48844208D135
:1024000001218804FFF7BEFC00214FF48020FFF774
:10241000B9FC10BD00220288944B98420ED0994B13
:1024200098420BD0B0F1804F08D0914B984205D024
:10243000904B984202D0904B984204D14FF68F7344
:102440001A404B881A438D4B984207D08C4B9842C8
:1024500004D04FF6FF431A40CB881A4302808B8882
:1024600083850B880385814B98420BD0854B98421E
:1024700008D08B4B984205D08A4B984202D08A4BA9
:10248000984201D10B7A038601238382704770B58D
:10249000002400220023058C4FF6FE76354005848B
:1024A000028C8388048B4FF68F752C40B51E2C4010
:1024B0000D882C43751E2A400D892A434D882A43D6
:1024C0006A4DA8420BD06F4DA84208D0744DA84267
:1024D00005D0744DA84202D0734DA84213D14FF6D7
:1024E000F7752A404D892A434FF6FB752A408D889F
:1024F0002A434FF6FF652B404FF6FF552B408D8941
:102500002B43CD892B4383800483CD888586028429
:1025100070BD70B5002400220023058C4FF6EF76C5
:1025200035400584028C8388048B48F6FF752C4067
:102530004FF6FF452C400D884FF6FF7606EA05253D
:102540002C434FF6DF752A400D8906EA05152A430C
:102550004D8806EA05152A43444DA84202D0494D4C
:10256000A8421DD14FF67F752A404D894FF6FF7660
:1025700006EA05152A434FF6BF752A408D8806EAFC
:1025800005152A434FF6FF352B404FF2FF752B40C0
:102590008D8906EA85052B43CD8906EA85052B43FF
:1025A00083800483CD880587028470BD70B50024C4
:1025B00000220023058C4FF6FF6635400584028C0F
:1025C0008388848B4FF68F752C404FF6FC752C401A
:1025D0000D882C434FF6FF552A400D894FF6FF76A4
:1025E00006EA05252A434D8806EA05252A431F4D9C
:1025F000A84202D0234DA8421DD14FF2FF752A40B8
:102600004D894FF6FF7606EA05252A434FF6FF353A
:102610002A408D8806EA05252A434EF6FF752B4091
:102620004DF6FF752B408D8906EA05152B43CD89A4
:1026300006EA05152B4383808483CD888587028431
:1026400070BD70B5002200230024058C4EF6FF7685
:1026500035400584038C8488828B48F6FF752A40B8
:102660004FF6FF452A400D8820E00000002C014075
:102670000004004000080040000C00400010004032
:102680000014004000340140004C01400050014063
:102690000054014000180040001C00400020004091
:1026A0000040014000440140004801404FF6FF76E1
:1026B00006EA05252A434DF6FF752B400D8906EAEB
:1026C00005352B434D8806EA05352B43FA4DA842C4
:1026D00002D0FA4DA84208D14BF6FF752C408D89E7
:1026E0004FF6FF7606EA85152C4384808283CD88D9
:1026F000A0F84050038470BD828B4FF2FF331A4024
:102700008283828B4FF6FF7303EA01231A4382838D
:102710007047F0B50C461546002200210026078CB4
:102720004EF6FF7C07EA0C070784828B018C4FF67C
:10273000FF7707EA043640F6FF473A404FF6FF7747
:1027400007EA05273A434FF6FF7707EA03373A438C
:10275000D94FB8420ED0D94FB8420BD0B0F1804F0C
:1027600008D0D74FB84205D0D64FB84202D0D64F86
:10277000B84206D14DF6FF77394046F480573943C9
:1027800005E047F6FF57394044F4805739438283C8
:102790000184F0BD828B4FF6F3731A408283828BE3
:1027A0000A4382837047F0B50C461546002200218B
:1027B0000026078C4FF6FF6C07EA0C070784828B14
:1027C000018C4FF6FF7707EA04264FF60C773A4064
:1027D0004FF6FF7707EA03172F433A43B64FB84245
:1027E0000ED0B64FB8420BD0B0F1804F08D0B44FE6
:1027F000B84205D0B34FB84202D0B34FB84206D169
:102800004FF6FF57394046F48077394305E04FF2E1
:10281000FF57394044F48077394382830184F0BD07
:10282000028B4FF2FF331A400283028B4FF6FF7385
:1028300003EA01231A4302837047F0B50C4615469C
:10284000002200210026078C4FF6EF7C07EA0C07D8
:102850000784028B018C4FF6FF7707EA041640F6D7
:10286000FF473A404FF6FF7707EA03373A434FF600
:10287000FF7707EA05273A438F4FB8420ED08F4FB4
:10288000B8420BD0B0F1804F08D08D4FB84205D080
:102890008C4FB84202D08C4FB84206D14FF6DF774A
:1028A000394046F01007394305E04FF65F7739406D
:1028B00044F01007394302830184F0BD028B4FF6C8
:1028C000F3731A400283028B0A4302837047F0B508
:1028D0000C46154600220021068C4FF6FE773E403E
:1028E0000684028B018C4FF60C7632407E1C06EA81
:1028F00003162E433243704EB0420ED06F4EB0429C
:102900000BD0B0F1804F08D06D4EB04205D06D4E67
:10291000B04202D06C4EB04206D14FF6FD76314047
:1029200044F00106314305E04FF6F576314044F0BE
:102930000106314302830184F0BD70B505460C46A3
:102940005D4885420ED05D4885420BD0B5F1804F81
:1029500008D05B48854205D05A48854202D05A4883
:10296000854200D100E000BF208850B92389A288A9
:1029700061882846FFF7ABFFE1882846FFF79EFFF6
:1029800025E0208804280AD12389A2886188284666
:10299000FFF753FFE1882846FFF742FF17E0208842
:1029A00008280AD12389A28861882846FFF7FBFE00
:1029B000E1882846FFF7EEFE09E02389A2886188B6
:1029C0002846FFF7A6FEE1882846FFF795FE70BD72
:1029D0002DE9F04105460C4600260127608808B91C
:1029E000022600E00026A088012801D1022700E08D
:1029F00001272088A0B92389A28861882846FFF78B
:102A000066FFE1882846FFF759FF23893A46314699
:102A10002846FFF712FFE1882846FFF701FF13E081
:102A20002389A28861882846FFF707FFE1882846A6
:102A3000FFF7F6FE23893A4631462846FFF747FF5F
:102A4000E1882846FFF73AFFBDE8F0810A884B8805
:102A50001A438B881A43CB881A430B891A434B8934
:102A60001A438B891A43A0F8442070474FF6FF7130
:102A7000818000210180C180418001727047002166
:102A8000018041808180C180018141818181C1813A
:102A90007047002101804180012181800021C18097
:102AA000018170470021018041808180C1800181C6
:102AB0004181818170470000002C014000340140B9
:102AC0000004004000080040000C004021B10288D2
:102AD00042F00102028004E002884FF6FE731A40C1
:102AE0000280704731B1B0F8442042F40042A0F8AF
:102AF000442005E0B0F84420C2F30E02A0F84420C0
:102B000070471AB183890B43838102E083898B4329
:102B1000838170478182704741EA0203A0F8483000
:102B200070471AB183890B43838102E083898B4309
:102B30008381704701894FF6F87211400181704717
:102B40000A46002101894FF68F7319401143018114
:102B5000704730B504460D4629462046FFF7F0FF82
:102B6000208940F00700208130BD2DE9F041044666
:102B70000D4616461F46602D06D13B4601223146C2
:102B80002046FFF75AFE05E03B460122314620462B
:102B9000FFF79DFE29462046FFF7D2FF208940F02F
:102BA00007002081BDE8F08130B50C460021018985
:102BB000C9B24FF6FF7505EA03251543254329439E
:102BC000018130BD2DE9F04105460E461746984675
:102BD000002443463A4631462846FFF7E5FF2C8954
:102BE0004FF6F870044044F007044FF68F7004402D
:102BF00044F070042C81BDE8F081F0B504460D4628
:102C000016461F463B46324629462046FFF7CCFF74
:102C1000208940F480402081F0BD01858282704788
:102C20000A46002101884FF68F7319401143018035
:102C30007047F0B50C4615461E46002100220023C1
:102C40000189028B038C4FF6F877394021434FF608
:102C5000FC473A4040F201173A434FF6DD773B40DC
:102C60004FF6FF7707EA06172F433B4301810283A4
:102C70000384F0BD0A460021018B4FF68F73194083
:102C80001143018370470A460021018B48F6FF7308
:102C900019404FF6FF7303EA02231943018370477B
:102CA0000A460021818B4FF68F73194011438183AF
:102CB00070470A460021818B48F6FF7319404FF692
:102CC000FF7303EA022319438183704721B102880D
:102CD00042F08002028004E002884FF67F731A40BF
:102CE0000280704721B1828842F00402828004E0B1
:102CF00082884FF6FB731A408280704721B1828828
:102D000042F00802828004E082884FF6F7731A408E
:102D10008280704721B1828842F00102828004E003
:102D200082884FF6FE731A40828070470A4600215F
:102D3000018B4FF6F77319401143018370470A4620
:102D40000021018B4FF2FF7319404FF6FF7303EA26
:102D500002231943018370470A460021818B4FF6F5
:102D6000F77319401143818370470A460021818B14
:102D70004FF2FF7319404FF6FF7303EA0223194322
:102D8000818370470A460021018B4FF6FB7319407F
:102D90001143018370470A460021018B4FF6FF3330
:102DA00019404FF6FF7303EA02231943018370476A
:102DB0000A460021818B4FF6FB7319401143818332
:102DC00070470A460021818B4FF6FF3319404FF6BA
:102DD000FF7303EA02231943818370470A460021E7
:102DE000018B4FF67F7319401143018370470A46E8
:102DF0000021018BC1F30E014FF6FF7303EA02239A
:102E00001943018370470A460021818B4FF67F7377
:102E100019401143818370470A460021818BC1F319
:102E20000E014FF6FF7303EA0223194381837047B3
:102E30000A460021018C4FF6FD73194011430184AD
:102E400070470A460021018C4FF6F7731940114371
:102E5000018470470A460021018C4FF6DF73194048
:102E60004FF6FF7303EA02131943018470470A46C1
:102E70000021018C4FF67F7319404FF6FF7303EA70
:102E800002131943018470470A460021018C4FF652
:102E9000FF5319404FF6FF7303EA022319430184DD
:102EA00070470A460021018C4FF2FF7319404FF61C
:102EB000FF7303EA02231943018470470A46002185
:102EC000018C4DF6FF7319404FF6FF7303EA02338E
:102ED00019430184704730B5002301248C40A3B20C
:102EE000048C9C430484048C02FA01F5ADB22C439B
:102EF000048430BD30B5002304248C40A3B2048C7C
:102F00009C430484048C02FA01F5ADB22C43048482
:102F100030BD70B503460020002418461830012546
:102F20008D40ACB21D8CA5431D8409B1082909D17F
:102F300000EB6100056825F0700505600568154324
:102F400005600EE00D1FC5F34E052844056825F405
:102F5000E045056005684FF6FF7606EA0226354330
:102F6000056070BD21B1028842F00202028004E0D7
:102F700002884FF6FD731A400280704721B1028823
:102F800042F00402028004E002884FF6FB731A400C
:102F90000280704721B1828842F08002828004E082
:102FA00082884FF67F731A408280704702884FF6FE
:102FB000F7731A40028002880A43028070478288B1
:102FC0004FF68F731A40828082880A43828070474E
:102FD00002894FF6F8731A40028102890A4302817E
:102FE000704702894FF67F731A40028102890A43B3
:102FF0000281704781847047818570478186704760
:103000000187704781877047A0F840107047028899
:103010004FF6FF431A40028002880A43028070473D
:103020000146888E70470146088F70470146888F99
:1030300070470146B1F8400070470146888C7047E0
:103040000146088D704702460020138A0B400BB1E1
:10305000012000E000207047CA430282704730B56B
:103060000246002000230024158A05EA0103958901
:1030700005EA010413B10CB1012000E0002030BDCD
:10308000CA4302827047000010B50446FB488442E0
:1030900009D101218803FEF775FE00214FF480401D
:1030A000FEF770FE32E0F648844209D1012148045F
:1030B000FEF775FE00214FF40030FEF770FE25E0AC
:1030C000F048844209D101218804FEF768FE0021FE
:1030D0004FF48020FEF763FE18E0EB48844209D1EC
:1030E0000121C804FEF75BFE00214FF40020FEF72B
:1030F00056FE0BE0E548844208D101210805FEF7A1
:103100004EFE00214FF48010FEF749FE10BD2DE960
:10311000F04786B005460E460024A24600BFA146F1
:103120000027B08900B100BF2F462C8A4CF6FF70F3
:103130000440F08804432C82AC894EF6F31004401E
:10314000B08831890843718908430443AC81AC8A53
:103150004FF6FF400440B0890443AC8201A8FEF75B
:103160008AFDC648874202D1DDF810A001E0DDF8F3
:103170000CA0A88900F4004040B10AEBCA0000EBA3
:103180000A1031684900B0FBF1F807E00AEBCA0009
:1031900000EB0A1031688900B0FBF1F86420B8FB3D
:1031A000F0F004012009642101FB1089A88900F4D2
:1031B000004040B1322000EBC900B0FBF1F000F05C
:1031C0000700044308E0322000EB09106421B0FB43
:1031D000F1F000F00F0004432C8106B0BDE8F08749
:1031E0004FF41651016000218180C18001810C21C2
:1031F000418100218181704710B502460020108A6C
:103200004FF2FF0318400B884C8823438C882343DC
:10321000CC8823431843108210BD002101804180D7
:103220008180C180704721B1828942F4005282813D
:1032300004E082894DF6FF731A4082817047F0B531
:103240000346002400260025002040F66A17B942F4
:1032500000D100BF1846C1F3421401F01F06012738
:1032600007FA06F5012C01D10C3004E0022C01D143
:10327000103000E014301AB107682F43076002E0F5
:103280000768AF430760F0BD1AB1838A0B4383829E
:1032900002E0838A8B4383827047028A4FF6F07381
:1032A0001A400282028A0A430282704782894FF2E0
:1032B000FF731A40828182890A438281704721B15B
:1032C000828942F00202828104E082894FF6FD7316
:1032D0001A4082817047028A4FF6DF731A400282D9
:1032E000028A0A430282704721B1028A42F4804274
:1032F000028204E0028A4BF6FF731A400282704792
:10330000C1F308028280704701468888C0F3080034
:103310007047818941F0010181817047028BD2B2EF
:103320000283028B42EA012202837047028B02F47D
:103330007F420283028B0A430283704721B1828A53
:1033400042F02002828204E0828A4FF6DF731A4044
:103350008282704721B1828A42F01002828204E0A8
:10336000828A4FF6EF731A408282704721B1828AB7
:1033700042F00802828204E0828A4FF6F7731A4014
:103380008282704721B1828942F40042828103E047
:103390008289C2F30E028281704721B1828A42F48F
:1033A0000062828204E0828A4FF2FF731A408282B6
:1033B0007047828A4FF6FB731A408282828A0A43E0
:1033C0008282704721B1828A42F00202828204E046
:1033D000828A4FF6FD731A408282704702460020AF
:1033E000B1F5007F00D100BF13880B400BB1012065
:1033F00000E00020704701F40072B2F5007F00D1B8
:1034000000BFCA430280704770B502460024002303
:103410000025002040F66A16B14200D100BFC1F37A
:10342000421501F01F03012606FA03F3012D02D114
:103430009689334006E0022D02D1168A334001E01E
:10344000968A33400C12012606FA04F4168834409A
:1034500013B10CB1012000E0002070BD10B50022B6
:10346000002340F66A14A14200D100BF0A120124D1
:103470009440A3B2DC43048010BD0000003801403A
:103480000044004000480040004C00400050004014
:1034900010B56FF00400FDF7AAFF2E4800682E4912
:1034A000B0FBF1F02D4908700846007800EB4001B0
:1034B000C1EBC0104FF6FF7101EAC0002849088037
:1034C00010BD0146254A12784A434FF0E0235A6165
:1034D00000229A611A46126942F001021A6100BF85
:1034E0004FF0E022106900F001021AB100F48032BE
:1034F000002AF5D04FF0E022126922F001024FF0CD
:10350000E0231A6100229A6170470146144A12882A
:103510004A434FF0E0235A6100229A611A46126929
:1035200042F001021A6100BF4FF0E022106900F082
:1035300001021AB100F48032002AF5D04FF0E022E7
:10354000126922F001024FF0E0231A6100229A6111
:10355000704700004C00002000127A007400002028
:103560007600002000BF704700BF514A128802F069
:103570004002002AF9D0C2B24D4B1B1D1A80704781
:1035800010B586B00446012144F20400FEF7E0FBCA
:103590004FF40070ADF8140003208DF816001820C9
:1035A0008DF8170005A94348FEF790F84FF48060A6
:1035B000ADF8140004208DF8170005A93D48FEF76A
:1035C00085F825208DF8000003208DF801008DF886
:1035D000020001208DF803006846FDF7BEFE01944D
:1035E0000020ADF80800ADF80A00ADF80C00ADF809
:1035F00010000C20ADF80E0001A92D48FFF787FD43
:10360000012240F225512A48FFF719FE01212848DE
:10361000FFF709FE06B010BD10B504462146244848
:10362000FFF76EFE00BF80212148FFF7D7FE00287C
:10363000F9D010BD10B540F225511D48FFF7E4FE4A
:1036400010B31B48FFF760FEC4B21B48008800F4AB
:103650000040C8B91848008800F4804060B10A2CC6
:1036600003D000201449088020E01348008840F46B
:1036700000401149088019E00D2C06D10E48008841
:1036800040F480400C49088010E00B480088C0F3EB
:103690000D000A490C5408480088401C064908805F
:1036A00008460088C72801DD0020088010BD000002
:1036B00000380140000801407C000020E0030020A9
:1036C00008B501211020FEF743FB4FF40050ADF880
:1036D000000010208DF8030003208DF802006946D9
:1036E0000448FDF7F3FF4FF400510248FEF79BF842
:1036F00008BD00000010014010B540F2255161489E
:10370000FFF782FE002847D05E48FFF7FDFDC4B2F8
:103710005D485E490978445421465D48FFF7F0FD55
:10372000242C02D101205B490870242C06D1594871
:103730000078012802D1022056490870212C02D1BC
:10374000032054490870212C06D1524800780328E0
:1037500002D104204F4908704E480078042816D141
:103760004D484E49097844544C480078401C4B4918
:10377000087008460078162809DD474948A009F076
:103780004FFA0520434908700020444908703F481B
:103790000078401C3D49087010BD10B586B0044645
:1037A00001210420FEF7D4FA01214804FEF7DDFAD6
:1037B0003448FFF769FC0420ADF8100003208DF8B1
:1037C000120018208DF8130004A93948FDF77EFF78
:1037D0000820ADF8100048208DF8130004A93548E2
:1037E000FDF774FF00940020ADF80400ADF806006A
:1037F000ADF80800ADF80C000C20ADF80A006946E1
:103800002048FFF784FC01211E48FFF70CFD012230
:1038100040F225511B48FFF712FD26208DF81400B9
:1038200002208DF8150003208DF8160001208DF878
:10383000170005A8FDF791FD06B010BD0FB438B50F
:1038400005A800901C48009A049909F00DFA002080
:103850000090194808F002FD85B200240DE000BF79
:1038600040210848FFF7BAFD0028F9D01248015D51
:103870000448FFF745FD601C84B2AC42EFDB38BC66
:103880005DF814FB00440040A80400207F000020E5
:1038900000380140800000209C06002084000020A9
:1038A0006573702074696D653A25730D0A00000018
:1038B00000080140000C01400C05002010B540F24A
:1038C0002551B448FFF7A0FD002867D0B148FFF7A5
:1038D0001BFDC4B2B048B149097844544F2C02D101
:1038E0000120AF4908704B2C1DD1AD48007801284C
:1038F00019D1AC4908700020A9490870AA4800688D
:10390000C043AA49C1F8B4010120A94908700D219A
:10391000A14AA2480078401C11540A219F4800780F
:10392000801C115419E0522C17D19D4800780128B1
:1039300013D100209A49087002209A49087001208A
:103940009B4908700D21944A94480078401C1154FA
:103950000A2192480078801C1154242C05D19048EB
:10396000007810B903208E490870242C11D18C489E
:10397000007803280DD10420894908700D21864A5A
:1039800086480078401C11540A2184480078801C25
:10399000115482480078401C8049087040F225513B
:1039A0007C48FFF75BFD10BD10B57C480478002013
:1039B0007A4908707E480078012833D176497DA085
:1039C00009F02EF9201F7449085C4F2812D1E01E1F
:1039D000085C4B280ED17AA009F022F900207A4920
:1039E0000880734908704FF4C8716B4808F01FFCD9
:1039F000012010BD214675A009F012F9E01E664BAA
:103A00001A5C201F195C74A009F00AF94FF4C87100
:103A1000614808F00CFC00206B490880644908707C
:103A20000220E6E75C496FA009F0FAF80020E0E721
:103A300010B586B0044601210920FEF789F901215D
:103A40008804FEF792F95348FFF71EFB4FF480609D
:103A5000ADF8100003208DF8120018208DF8130027
:103A600004A96348FDF732FE4FF40060ADF8100082
:103A700004208DF8130004A95D48FDF727FE00948B
:103A80000020ADF80400ADF80600ADF80800ADF870
:103A90000C000C20ADF80A0069463E48FFF737FBE2
:103AA00001213C48FFF7BFFB012240F22551394874
:103AB000FFF7C5FB27208DF8140001208DF81500B5
:103AC00000208DF8160001208DF8170005A8FDF7DD
:103AD00044FC00203C49088006B010BD0FB438B546
:103AE00005A800904348009A049909F0BDF8002009
:103AF0000090404808F0B2FB85B200240DE000BF02
:103B000040212448FFF76AFC0028F9D03948015DBC
:103B10002048FFF7F5FB601C84B2AC42EFDB38BCF9
:103B20005DF814FB10B5044621461A48FFF7E8FB80
:103B300000BF80211748FFF751FC0028F9D010BDC5
:103B400010B5044620211348FFF748FC08B90020AF
:103B500010BD1048FFF7D8FB20700120F8E70020C7
:103B60001949098801F4004199B117490988C1F33D
:103B70000E000021084A1154B0F5C77F02DD40F263
:103B80008F1011540121044A82F88F1100210E4A2E
:103B90001180704700480040B20600208B000020D2
:103BA0008C00002087000020B40122420000224245
:103BB0008A0000207374723A25730D0A0000000019
:103BC0003125730D0A000000880000200D0A6C6585
:103BD0006E3A25640D0A00003225632025632025F6
:103BE000730D0A000D0A7374723A25730D0A0000F2
:103BF000000C01404208002070B50546002400BFBB
:103C00000A20FFF782FC18E02946B0A0FFF766FF04
:103C10001420FFF77AFCFFF7C7FE04462146ADA04B
:103C200008F0FEFF022C04D1AEA008F0F9FF00243A
:103C300003E014B9B0A008F0F3FF002CE4D070BD8D
:103C400070B50546002400BF0A20FFF75EFC18E0AF
:103C500029469EA0FFF742FF1420FFF756FCFFF70E
:103C6000A3FE044621469BA008F0DAFF022C04D1F3
:103C7000A5A008F0D5FF002403E014B9A7A008F020
:103C8000CFFF002CE4D070BD10B50121A848FDF78E
:103C9000B0FD08B1012010BD0020FCE710B505E023
:103CA000A4A008F0BDFF1420FFF72FFCFFF7ECFFE6
:103CB0000028F5D10120A44908600020A349C1F8DB
:103CC00080010A20FFF721FCA1A008F0A9FFA3A012
:103CD000FFF792FFA5A008F0A3FFA7A0FFF7B0FF92
:103CE000A8A008F09DFFACA0FFF786FFAEA008F0EB
:103CF00097FFB0A0FFF7A4FFB1A008F091FFB4A018
:103D0000FFF77AFFB5A008F08BFFB8A0FFF798FF88
:103D1000B9A008F085FFBCA0FFF76EFFBDA008F0BA
:103D20007FFFC0A0FFF78CFFC1A008F079FFC4A0FF
:103D3000FFF762FFC5A008F073FFC8A0FFF780FF80
:103D4000C9A008F06DFFCCA0FFF756FFCDA008F08A
:103D500067FFD0A0FFF774FFD1A008F061FFD7A0E4
:103D6000FFF74AFFD8A008F05BFFDEA0FFF768FF6F
:103D7000DFA008F055FFE2A0FFF73EFFE3A008F048
:103D80004FFF0020704908607049C1F8800110BDE4
:103D900010B5002405E0E7A008F042FF3220FFF74D
:103DA000B4FBFFF771FF0028F5D1012066490860D8
:103DB00000206649C1F88001E3A008F031FF14201B
:103DC000FFF7A3FB17E0E5A0FFF788FEC820FFF789
:103DD0009CFBFFF7E9FD044621463EA008F020FFCA
:103DE000022C04D1DFA008F01BFF002403E014B96B
:103DF00041A008F015FF002CE5D0DEA008F010FF70
:103E000010BD08B501210820FDF7A2FF10208DF894
:103E100003000220ADF8000003208DF8020069467F
:103E20004348FDF753FC02214148FDF7FEFC2820E2
:103E30008DF803000120ADF8000003208DF802008A
:103E400069463B48FDF742FC01213948FDF7EDFC8E
:103E5000FFF79EFFFFF722FF012008BD2DE9F0418B
:103E600080460C4615461E4600272B4622464146F4
:103E7000C4A008F0D5FE4046FFF754FE2046FFF7E9
:103E800051FE2846FFF74EFE04E0F05DFFF74AFEC4
:103E9000781C07B2F05D2428F7D1FFF743FE0D2010
:103EA000FFF740FE0A20FFF73DFEBDE8F08170B548
:103EB00004460D4601202449086000202349C1F82A
:103EC0008001214601A0FFF709FE70BD25730D0A90
:103ED000000000004C6F72615F53746174653A2595
:103EE000640D0A00C9E8D6C3CAB1BDD3CAD5B5BDF1
:103EF0004552524F520D0A00BBB9CEB4BDD3CAD5FC
:103F0000CDEA0D0A00000000B2E9D1AFCAB1BDD3BD
:103F1000CAD5B5BD4552524F520D0A00B2E9D1AFD4
:103F2000BBB9CEB4BDD3CAD5CDEA0D0A000000009E
:103F3000000C01404C4F52415F5365745F4D6F64FC
:103F400065D5FDC3A60D0A0084812142008021426F
:103F50000D0AC9E8D6C3B5D8D6B73A0041542B41AB
:103F60004444523D30302C30300000000D0AB6C1C0
:103F7000C8A1B5D8D6B73A0041542B414444523F6A
:103F8000000000000D0AC9E8D6C3D0C5B5C0BCB05A
:103F9000CBD9C2CA3A00000041542B574C5241546D
:103FA000453D32332C3500000D0AB6C1C8A1D0C53D
:103FB000B5C03A0041542B574C524154453F000084
:103FC0000D0AC5E4D6C3B7A2C9E4B9A6C2CA3A006D
:103FD00041542B54504F5745523D33000D0AB2E91E
:103FE000D1AFB7A2C9E4B9A6C2CA3A0041542B5412
:103FF000504F5745523F00000D0AC5E4D6C3B9A43F
:10400000D7F7C4A3CABD000041542B43574D4F44BA
:10401000453D30000D0AB2E9D1AFB9A4D7F7C4A32A
:10402000CABD000041542B43574D4F44453F00004B
:104030000D0AC5E4D6C3B7A2CBCDD7B4CCAC000033
:1040400041542B544D4F44453D3100000D0AB2E917
:10405000D1AFB7A2CBCDD7B4CCAC000041542B54D8
:104060004D4F44453F0000000D0AC5E4D6C3CBAF19
:10407000C3DFCAB1BCE4000041542B574C54494D36
:10408000453D30000D0AB2E9D1AFCBAFC3DFCAB1B5
:10409000BCE4000041542B574C54494D453F0000AF
:1040A0000D0AC5E4D6C3B2A8CCD8C2CAA3ACCAFD17
:1040B000BEDDD0A3D1E9CEBB0000000041542B559A
:1040C0004152543D372C30000D0AB2E9D1AFB2A8AD
:1040D000CCD8C2CAA3ACCAFDBEDDD0A3D1E9CEBB49
:1040E0000000000041542B554152543F0000000095
:1040F0000D0AC5E4D6C3B1A3B4E6C4A3CABD00008B
:1041000041542B464C4153483D3000000D0A2A2AA9
:104110002A2A2A2A2A2A2A2A6C6F7261C5E4D6C35F
:10412000CDEAB3C92A2A2A2A2A2A2A2A2A2A2A2A64
:104130000D0A00004C4F52415F436865636BD5FD2B
:10414000C3A60D0A00000000BCECB2E24C4F524185
:10415000CAC7B7F1D4DACFDF0D0A000041540D0A07
:1041600000000000BDD3CAD5B5BD4552524F520D17
:104170000A0000004C4F5241BCECB2E2B3C9B9A6F0
:104180000D0A0000616464683A25642C206164644F
:104190006C3A25642C2063683A25640D0A0D0A00E8
:1041A0007FB505460C4601210220FDF7DEFDFE48E5
:1041B000FEF75CF8ADF80850ADF804400020ADF80B
:1041C0000A00ADF8060001A9F748FEF723F91D2003
:1041D0008DF8000001208DF8030000208DF801000B
:1041E00003208DF802006846FDF7B7F80121EE487C
:1041F000FEF746FF01221146EB48FEF782FC012143
:10420000E948FEF763FC7FBD00B587B0E7A30FCB9D
:10421000CDE90523CDE90301E848C079401CE74911
:10422000C8710846C07902287EDB0020C8710846A4
:104230008079401C8871084680793C28F4DB084668
:1042400040790979DD4AD278CDE900210290DB4836
:1042500083780288DAA1DF4808F0F2FC0020102100
:10426000DC4ACDE900210290DB484088123881B257
:104270001F234FF6FF72002001F035FA0020CF49CE
:10428000887108464079401C487108464079D349F6
:10429000097890FBF1F201FB120008B9FCF7A8FDC8
:1042A000C64840793C2859DB0020C449487108467B
:1042B0000079401C08710846007918284EDB002060
:1042C00008710846C078401CC8700846C078009045
:1042D000084683780288C2A1C54808F0B1FCB749F6
:1042E0000888C11700EB91718910A0EB810149B9D1
:1042F000B2498978022905D1B049897803AA515C6D
:10430000491C03E0AD49897803AA515CAB4AD278D5
:10431000914223DA0120A949C8700846C07800906C
:1043200008468378028800E018E0ADA1B04808F0A4
:1043300087FCA2488078401CA04988700846807895
:104340000C280BDD0120887008460088401C08807E
:1043500008460088632801DD0020088007B000BD02
:1043600010B501219048FEF77AFE20B3A1480078ED
:10437000401CA0490870FFF747FF9F4800780128BC
:1043800004D19E480078401C9C4908709B480078E6
:104390009B490978884204D100209849087001F0AF
:1043A0006FFC98480068C0439749C1F8B4010121E7
:1043B0007D48FEF765FE10BD3EB5002493A0FFF7D3
:1043C0003DFA0A20FFF7A1F814E0322094FBF0F147
:1043D00000FB114010B98DA0FFF730FA142C00DD5E
:1043E0000CE021468CA008F01BFC601CC4B23220FB
:1043F000FFF78BF88B4800780528E6D100BF142C16
:104400007DDA8948807830384FF47A71484386499C
:10441000C978303901EBC10202EB011100EB8101D7
:1044200081480079303800EB800001EB40017E4884
:10443000407930380844614908807B48007A303838
:104440007949C979303901EB810100EB41005B49C1
:1044500088707548C07A30387349897A303901EBF1
:10446000810100EB41005549C8706F48807B3038AE
:104470006D49497B303901EB810100EB41004F4927
:1044800008716948407C30386749097C303901EB54
:10449000810100EB4100494948716348007D303893
:1044A0006149C97C303901EB810100EB410043498E
:1044B00088715D48407900905B480379C2788178C3
:1044C0005AA008F0ADFB3D4840793C4909793B4A88
:1044D000D278CDE90021029038488378028838A14B
:1044E0003C4808F0ADFB002010213A4ACDE90021FC
:1044F000029039484088123881B21F2300E013E04F
:104500004FF6FF72002001F0EEF82C48C0780090C2
:104510002A488378028832A1354808F091FB344953
:1045200047A008F07DFB3BE047A008F079FB40F294
:10453000E6702249088001208870C8700020087148
:10454000487188710846C0780090084683780288D0
:1045500023A1274808F074FB254939A008F060FB27
:104560001648407915490979144AD278CDE90021D5
:10457000029012488378028811A1164808F060FB67
:1045800000201021134ACDE90021029012484088F2
:10459000123881B21F234FF6FF72002001F0A3F8FA
:1045A0000020204908705FE000040040001F1C1F2D
:1045B0001E1F1E1F1F1E1F1E1F0000009200002036
:1045C0002534642F2532642F2532642F2532643A36
:1045D000253264009A0A0020D20A002091000020AF
:1045E000303A2F2564256425642E54585400000069
:1045F000AE0A00208E000020A400002090000020C1
:1046000002000020B4012242000022426765746E5D
:104610006F7774696D6500007265747572793A25FB
:10462000640D0A00800000209C06002074696D65FE
:10463000203A25642025642025642025630D0A0086
:1046400025730D0A00000000C3BBD3D0CAD5B5BD89
:10465000657370B7A2C0B4B5C4CAB1BCE4CAFDBE2C
:10466000DD2121210D0A00006421034807F0DFFD50
:1046700002A0FFF7E3F83EBDA80400207365746E46
:104680006F776461746100000EB501210420FDF7AD
:104690005FFB01210820FDF75BFB01210846FDF7C8
:1046A00057FB8020ADF8000048208DF80300032060
:1046B0008DF8020069462A48FDF708F8802128484D
:1046C000FDF7B1F807210020FDF716F980200190D1
:1046D00000208DF808000C208DF8090001208DF8CD
:1046E0000A0001A8FCF712FF0EBD10B580211C487E
:1046F000FDF77FF800282FD11AA317220121FFF719
:10470000ADFB18A3172202210020FFF7A7FB15A37A
:10471000172203210020FFF7A1FB12A31722042177
:104720000020FFF79BFB12A008F07AFA0A20FEF7A0
:10473000ECFE012080F3138800BF00BF0E48006824
:1047400000F4E0600D490843001D0B490860BFF309
:104750004F8F00BF00BFFEE78020FCF74EFF10BD6B
:104760000008014026267265626F6F7424240000E1
:10477000D6D8C6F40D0A00000CED00E00000FA05E2
:1047800008B503208DF8000000208DF801008DF899
:10479000020001208DF803006846FCF7DEFD08BD2D
:1047A000F0B503460C461546642093FBF0F0C6B204
:1047B000642093FBF0F700FB1730C1B2132E02DD2B
:1047C00001F16400C1B20846CF1701EB977701EB06
:1047D000A707BAB2072092FBF0F700FB172082B2BE
:1047E0005719601EDFF838C31CF80000384482B245
:1047F000CF1701EB9777BF10A1EB87071FB9032CE9
:1048000001DA501E82B2072092FBF0F700FB17205E
:10481000C0B2F0BD0146CA1701EB92729210A1EB33
:10482000820292B9642091FBF0F200FB121050B9A1
:104830004FF4C87091FBF0F200FB121008B9012090
:1048400070470020FCE70120FAE70020F8E770B588
:10485000002600240025FDF7FFFA0646B148B6FB06
:10486000F0F4B1480088A0423CD0AF490C8040F23F
:10487000B27510E02846FFF7CDFF40B1B4F5B77F21
:1048800002D3A4F5B77404E0681C85B206E0A4F274
:104890006D14681C85B2B4F5B67FEBD800BFA34891
:1048A0008580002516E0A1498888FFF7B3FF30B165
:1048B000012D04D11D2C01D31D3C09E00CE09C48C6
:1048C000405DA04203D89A48405D241A00E003E00E
:1048D000681C85B21C2CE6D200BF681C9349887105
:1048E000601CC8718F48B6FBF0F100FB11644FF4F7
:1048F0006160B4FBF0F08D4908704FF46160B4FB67
:10490000F0F100FB11403C21B0FBF1F08749487009
:104910004FF46160B4FBF0F100FB11403C21B0FBAF
:10492000F1F201FB1200814988700B46DA7999791E
:104930009888FFF735FF7D490872002070BD2DE98A
:10494000F05F06460F4690469946DDE90AAB002423
:1049500040F2B270864203DB40F63300864202DD4D
:104960000120BDE8F09F40F2B2750AE02846FFF74B
:1049700051FF10B16F48044401E06F480444681CC3
:1049800085B2B542F2DB781EC7B2002510E0684858
:10499000405D40F2A321484304EBC0143046FFF7CA
:1049A00039FF18B1012D01D15E480444681C85B25D
:1049B000BD42ECDBA8F1010040F2A321484304EB27
:1049C000C014C9EB4910C0EB092004EB0014CAEB7A
:1049D0000A1004EB80045C4401214FF0C050FDF745
:1049E000C4F90120FCF7EBFF2046FDF73EFAFDF786
:1049F0006FFAFFF72CFF0020B3E71CB5002401215C
:104A00004FF0C050FDF7B1F90120FCF7D8FF0420AA
:104A1000FCF741FD45F2500188423FD0FCF706FD0E
:104A20000120FDF702F904E0601CC4B20A20FEF781
:104A30006CFD4120FDF761F80028F5D0FA2C01DB70
:104A400001201CBD4FF48070FDF70BF90120FDF72C
:104A50000EF9FDF73DFAFDF744FA01210846FDF78E
:104A6000DBF9FDF735FAFDF7E4F947F6FF70FDF7DE
:104A700009FAFDF72DFA1420332100230622CDE98F
:104A80000010012140F2E670FFF759FFFDF7DAF957
:104A900045F250010420FCF7F2FC07E0FDF721FA93
:104AA00001210846FDF7B8F9FDF712FAFFF768FE95
:104AB000FFF7CDFE0020C4E70EB50120FDF736FA62
:104AC00008B3FFF7C4FE1948807818494978174A97
:104AD0001278CDE9002102901448C379827917A198
:104AE0001B4808F0ADF800201021194ACDE900213B
:104AF000029018484088123881B21F234FF6FF7287
:104B0000002000F0F0FD0220FDF710FA10B10220A5
:104B1000FDF71CFA0520FDF719FAFDF7D9F90EBDCE
:104B2000C0D50008805101009C000020C80A002068
:104B3000CCD500080085E2018033E10125642D25F4
:104B400064202532643A2532643A2532640000003C
:104B50009A0A0020D20A002070B505460C4645F29C
:104B60005550FCF701FF2846FCF701FF2046FCF7F3
:104B700001FFFCF702FFFCF705FF70BD10B5FCF765
:104B8000FCFE10BD70B505460E461446314628465B
:104B900000F06EFE204600F02CFE70BD2DE9F05FA7
:104BA00004460D4616461F46301B401C1FFA80FA6D
:104BB000781B401C1FFA80FB3B46324629462046A4
:104BC00000F02CFE4FF000080FE04FF0000906E067
:104BD0000A9800F00EFE09F101001FFA80F9D14594
:104BE000F6DB08F101001FFA80F8D845EDDBFE483E
:104BF0004088401E83B2FC480088401E82B20021DB
:104C0000084600F00BFEBDE8F09F2DE9FF4F85B090
:104C100081468A460020049003900798A0EB09057E
:104C20000898A0EB0A06CDF80890CDF804A0002D56
:104C300001DD012705E00DB9002702E04FF0FF3745
:104C40006D42002E02DD4FF0010806E016B94FF06C
:104C5000000802E04FF0FF387642B54201DD2C46F5
:104C600000E034464FF0000B21E0019A91B2029A25
:104C700090B200F007FE0498284404900398304452
:104C800003900498A04205DD0498001B049002984C
:104C9000384402900398A04205DD0398001B03905E
:104CA0000198404401900BF101001FFA80FB601C49
:104CB0008345DADD09B0BDE8F08F2DE9F041044607
:104CC0000D4616461F462B46324629462046FFF71C
:104CD0009CFF3B46224629462046FFF796FF3B466F
:104CE000324639462046FFF790FF3B46324629467A
:104CF0003046FFF78AFFBDE8F081F8B504460D465F
:104D000016461F46B94800883B4632462946009061
:104D10002046FFF743FFF8BD2DE9F04104460D465C
:104D200016461F46DDF81880EA1991B2A21990B212
:104D30004246FFF727FFEA1991B2A21B90B2424602
:104D4000FFF720FFEA1B91B2A21990B24246FFF78B
:104D500019FFEA1B91B2A21B90B24246FFF712FF65
:104D6000AA1991B2E21990B24246FFF70BFFAA19B5
:104D700091B2E21B90B24246FFF704FFAA1B91B228
:104D8000E21990B24246FFF7FDFEAA1B91B2E21B68
:104D900090B24246FFF7F6FEBDE8F0812DE9FF4FE5
:104DA00081B0824617469846DDF838B00024454663
:104DB0004FEA4800C0F10306BBF1000F1FD01BE013
:104DC000A14608E04B462246009750460299FFF75D
:104DD000A3FF09F10109A945F4DD002E04DA04203E
:104DE00000FB0460861D06E0601B042101FB0060DF
:104DF00000F10A066D1E641CAC42E1DD18E015E00E
:104E00002B462246009750460299FFF785FF002E59
:104E100004DA042000FB0460861D06E0601B042108
:104E200001FB006000F10A066D1E641CAC42E7DD68
:104E300005B0BDE8F08F2DE9F04704460D46164653
:104E40001F46DDE908893B46324629462046FFF7E2
:104E5000DCFE4B46424639463046FFF7D6FE2B462F
:104E6000224649464046FFF7D0FEBDE8F08702885B
:104E70000B8803800A8070472DE9FF4F85B000261C
:104E80000027BDF81800BDF82010884207DD08A9EA
:104E900006A8FFF7ECFF07A905A8FFF7E8FFBDF894
:104EA0002000BDF84C10884207DD08A913A8FFF7C1
:104EB000DEFF07A912A8FFF7DAFFBDF81800BDF85A
:104EC0002010884207DD08A906A8FFF7D0FF07A930
:104ED00005A8FFF7CCFFBDF81800BDF84C108842BC
:104EE00038D1BDF8140003900490BDF81C00BDF843
:104EF0001010884203DABDF81C00049008E0BDF8E9
:104F00001C00BDF80C10884202DDBDF81C000390A7
:104F1000BDF84800BDF81010884203DABDF848001B
:104F2000049008E0BDF84800BDF80C10884202DD8E
:104F3000BDF8480003902D4800880090BDF8183057
:104F4000BDF80C201946BDF81000FFF727FE09B088
:104F5000BDE8F08FBDF81C00BDF81410A0EB010BEC
:104F6000BDF82000BDF81810401A0290BDF84800A6
:104F7000BDF81410451ABDF84C00BDF81810A0EB90
:104F80000109BDF84800BDF81C10A0EB010ABDF8EE
:104F90004C00BDF82010401A0190BDF82000BDF86B
:104FA0004C10884202D1BDF8208004E0BDF82000FA
:104FB000401E1FFA80F8BDF818402CE0029896FBBE
:104FC000F0F0BDF81410084480B2049097FBF9F09B
:104FD000BDF81410084480B203905E442F44BDF81D
:104FE0001000BDF80C1003E0D20A00209E00002043
:104FF000884203DD03A904A8FFF739FFFE480088B3
:1050000023460090BDF80C202146BDF81000FFF7A4
:10501000C5FD601C84B24445D0DDBDF82000201AD7
:1050200000FB0AF6BDF81800201A00FB05F727E080
:10503000019896FBF0F0BDF81C10084480B2049073
:1050400097FBF9F0BDF81410084480B20390564461
:105050002F44BDF81000BDF80C10884203DD03A9F1
:1050600004A8FFF704FFE448008823460090BDF839
:105070000C202146BDF81000FFF790FD601C84B2A3
:10508000BDF84C008442D3DD00BF60E72DE9FF4F3F
:1050900083B081468A469346DDE91064D64800888D
:1050A0000290A6F12000C6B204EBD47009EB6000B8
:1050B000401E82B20AEB0400401E83B251464846AD
:1050C000019400F0ABFB129850BB002525E00C2C9E
:1050D00007D106EB4600C94901EB800010F80580B6
:1050E00004E0C74800EB061010F8058000270DE02B
:1050F00008F0010018B1584600F07BFB02E006986A
:1051000000F077FB4FEA6808781CC7B204EBD47153
:10511000B7EB610FECDB681CC5B2A542D7DB2DE015
:10512000002529E00C2C07D106EB4600B34901EB22
:10513000800010F8058004E0B14800EB061010F87C
:105140000580002711E0AC48A0F800B008F001008D
:1051500038B10AEB050291B209EB070290B200F0F8
:1051600091FB4FEA6808781CC7B204EBD471B7EB27
:10517000610FE8DB681CC5B2A542D3DB9E490298EB
:105180000880A0484088401E83B29E480088401E88
:1051900082B20021084600F041FB07B0BDE8F08F65
:1051A0002DE9FE4306460F4615461C46DDF82880CD
:1051B0001DE094480088401EB04204DB91484088BE
:1051C000401EB84201DABDE8FE8320788DE8210157
:1051D0008D4803888848028839463046FFF756FFD5
:1051E000284605EBD07106EB61018EB2641C207875
:1051F0007E2802DC20782028DBDA00BFE3E710B548
:105200000246012000E050430B1EA1F10104E1B26F
:10521000F9D110BD2DE9FF4F83B0074691461E46D8
:10522000109C4FF0000A002543E0701B401EC1B2E5
:105230000A20FFF7E4FFB9FBF0F00A21B0FBF1F21E
:1052400001FB1208BAF1000F1BD1701EA84218DD35
:10525000B8F1000F13D100202021A346CDE900149E
:10526000029004EBDB71491001FB057188B26649BD
:105270000B8861490A880499FFF708FF17E04FF08F
:10528000010A002108F13000C0B2A346CDE9014176
:10529000009004EBDB71491001FB057188B25A499B
:1052A0000B8855490A880499FFF7F0FE00BF681C77
:1052B000C5B2B542B9DB07B0BDE8F08F2DE9FC5FA0
:1052C0000546884691469A46DDF830B00095602044
:1052D000019000245FE004EB04104C4911F8100029
:1052E0009BF80010884253D104EB0410474901EBAE
:1052F000400040789BF80110884249D108F10F0026
:1053000083B205F10F0082B24146284600F086FACA
:1053100000263BE0002734E00D9890B904EB041020
:105320003A4901EB4000801C805D802139410840F2
:1053300018B1484600F05DFA21E0504600F059FAF5
:105340001DE02D48A0F8009004EB04102F4901EB5C
:105350004000801C805D80213941084018B14146E1
:10536000284600F08FFA681C85B20098281A102889
:1053700005D1009D08F101001FFA80F803E0781CB8
:10538000C7B2082FC8DB00BF701CC6B2202EC1DB1D
:1053900000BF601C84B2019884429CDB194840889D
:1053A000401E83B217480088401E82B20021084682
:1053B00000F034FABDE8FC9F2DE9FC5F0546884605
:1053C00091469A46DDF830B0009507200190002400
:1053D00076E004EB840000EB44100D4911F8100056
:1053E0009BF80010884268D104EB840000EB441065
:1053F000074901EB40000DE09E000020D8D50008D1
:105400004CDA0008D20A0020A00000203CE000088E
:10541000FCEC000840789BF8011088424DD108F15F
:10542000170083B205F1170082B24146284600F00A
:10543000F5F900263FE0002738E00D98A0B904EB0D
:10544000840000EB4410CD4901EB4000801C805DDE
:1054500080213941084018B1484600F0CAF923E0DC
:10546000504600F0C6F91FE0C548A0F8009004EBD4
:10547000840000EB4410C14901EB4000801C805DBA
:1054800080213941084018B14146284600F0FAF918
:10549000681C85B20098281A182805D1009D08F1CB
:1054A00001001FFA80F803E0781CC7B2082FC4DBA4
:1054B00000BF701CC6B2482EBDDB00BF601C84B2AA
:1054C0000198844285DBAF484088401E83B2AD48D6
:1054D0000088401E82B20021084600F09FF9BDE816
:1054E000FC9F2DE9FC5F0546884691469A46DDF80B
:1054F00030B000950420019000245FE004EB84109C
:10550000A14911F810009BF80010884253D104EB18
:1055100084109D4901EB400040789BF801108842BF
:1055200049D108F11F0083B205F11F0082B2414644
:10553000284600F073F900263BE0002734E00D9880
:1055400090B904EB8410904901EB4000801C805D11
:1055500080213941084018B1484600F04AF921E05D
:10556000504600F046F91DE08548A0F8009004EB95
:105570008410854901EB4000801C805D8021394109
:10558000084018B14146284600F07CF9681C85B2F5
:105590000098281A202805D1009D08F101001FFA63
:1055A00080F803E0781CC7B2082FC8DB00BF701C6E
:1055B000C6B2802EC1DB00BF601C84B20198844259
:1055C0009CDB70484088401E83B26E480088401EB5
:1055D00082B20021084600F021F9BDE8FC9F2DE9C8
:1055E000FF4F83B0064688469146DDE91147109D7E
:1055F000B2464FF0000B71E0BBF1000F40D104EB5D
:10560000D471604A1288A2EB6101B14204DB5D49AA
:105610004988091B414502DA07B0BDE8F08F2878B8
:10562000802802DD4FF0010B58E028780D2806D1C4
:1056300008EB04001FFA80F856466D1C1EE0102C83
:105640000DDD102128788DE883004A46414630461A
:10565000069BFFF71BFD06F1080086B20EE02878D6
:105660008DE891004A4641463046069BFFF70EFD05
:10567000204604EBD07106EB61018EB26D1C2DE06B
:1056800040480088001BB04204DB3E484088001BB5
:10569000404500DAC0E74FF0000B202C08D1CDE9DF
:1056A00000574A4641463046069BFFF71AFF12E074
:1056B000182C08D1CDE900574A4641463046069B92
:1056C000FFF77AFE07E0CDE900574A4641463046EB
:1056D000069BFFF7F3FDAD1C301986B22878002831
:1056E0008AD100BF98E72DE9FE4F0E46174698462F
:1056F000DDE90D9A0C9C204606F0B0FD85B22149EB
:105700000988A1EBC50000EBD071C1F34F0B4346F4
:105710003A46314658468DE81006FFF760FFBDE86F
:10572000FE8F2DE9F04706460F46154607F1270084
:1057300083B206F1270082B23946304600F06EF897
:1057400000240AE015F8149005EB440090F801805D
:1057500049EA082000F04DF8641CB4F5C86FF1DB8D
:1057600008484088401E83B206480088401E82B226
:105770000021084600F052F8BDE8F087FCEC000874
:105780009E000020D20A002002EF000810B5044657
:105790004FF48070FE490860FE490860204600F022
:1057A00066FF4FF48070FA49091F086010BD10B5FC
:1057B00004464FF48070F6490860F649091F0860F6
:1057C000204600F054FF4FF48070F149091F086033
:1057D00010BD70B505460C462846FFF7D7FFE0B26E
:1057E000FFF7E5FF70BD10B5EB49087AFFF7CEFF74
:1057F00010BD10B504464FF48070E5490860E549D6
:10580000091F0860201200F032FFE0B200F02FFF05
:105810004FF48070DE49091F086010BD2DE9F0418A
:1058200004460D4616461F46DB49887AFFF7AEFF51
:105830002012FFF7BCFFE0B2FFF7B9FF3012FFF70D
:10584000B6FFF0B2FFF7B3FFD349087BFFF79EFF27
:105850002812FFF7ACFFE8B2FFF7A9FF3812FFF7F5
:10586000A6FFF8B2FFF7A3FFFFF7BDFFBDE8F08189
:1058700070B504460D462B46224629462046FFF7C2
:10588000CDFF70BD70B504460D4629462046FFF792
:10589000EFFFC2480088FFF7ACFF70BD70B5064649
:1058A000BD484088401E83B2BB480088401E82B27B
:1058B00000210846FFF7B2FF4FF48070B44908603A
:1058C000B449091F0860B44802884188B4A007F0B1
:1058D000A7F900240AE0002503E03046FFF789FF1E
:1058E0006D1CAD480088A842F7D8641CAA484088BF
:1058F000A042F0D84FF48070A549091F086070BD20
:1059000008B501210820FCF723FA01210420FCF747
:105910001FFA4FF49850ADF8000003208DF80200F4
:1059200010208DF8030069469A481438FBF7CEFE24
:105930004FF48070ADF8000003208DF802001020B5
:105940008DF80300694692481438FBF7BFFE08BD86
:1059500010B54FF480508F4908606420FDF7D5FDE5
:105960004FF480508B49091F08603220FDF7CDFDB0
:1059700010BD10B504462A20874948812B20888114
:105980002C20088134B1012C0FD0022C18D0032C0C
:105990002CD120E0F020804908804FF4A07048808E
:1059A00008213620FFF715FF21E04FF4A0707A4957
:1059B0000880F020488068213620FFF70AFF16E0B3
:1059C000F020754908804FF4A0704880C821362027
:1059D000FFF7FFFE0BE04FF4A0706F490880F02046
:1059E0004880A8213620FFF7F4FE00E000BF00BF8A
:1059F00010BD10B5FFF784FF00F060FE082000F036
:105A00009AFEFFF7A5FFCF20FFF7C0FE0020FFF7AB
:105A1000CEFEC920FFF7CBFE3020FFF7C8FEED20F9
:105A2000FFF7B4FE6420FFF7C2FE0320FFF7BFFEBE
:105A30001220FFF7BCFE8120FFF7B9FEE820FFF738
:105A4000A5FE8520FFF7B3FE1020FFF7B0FE7A20F9
:105A5000FFF7ADFECB20FFF799FE3920FFF7A7FE39
:105A60002C20FFF7A4FE0020FFF7A1FE3420FFF753
:105A70009EFE0220FFF79BFEF720FFF787FE202007
:105A8000FFF795FEEA20FFF781FE0020FFF78FFE6B
:105A90000020FFF78CFEC020FFF778FE1B20FFF7E9
:105AA00086FEC120FFF772FE0020FFF780FEC520B2
:105AB000FFF76CFE3020FFF77AFE3020FFF777FE0D
:105AC000C720FFF763FEB720FFF771FE3620FFF710
:105AD0005DFE0820FFF76BFE3A20FFF757FE5520CA
